{
  "contractName": "Score",
  "abi": [
    {
      "constant": true,
      "inputs": [
        {
          "internalType": "uint256",
          "name": "",
          "type": "uint256"
        }
      ],
      "name": "ciencias",
      "outputs": [
        {
          "internalType": "uint256",
          "name": "",
          "type": "uint256"
        }
      ],
      "payable": false,
      "stateMutability": "view",
      "type": "function"
    },
    {
      "constant": true,
      "inputs": [
        {
          "internalType": "uint256",
          "name": "",
          "type": "uint256"
        }
      ],
      "name": "id",
      "outputs": [
        {
          "internalType": "address",
          "name": "",
          "type": "address"
        }
      ],
      "payable": false,
      "stateMutability": "view",
      "type": "function"
    },
    {
      "constant": true,
      "inputs": [
        {
          "internalType": "uint256",
          "name": "",
          "type": "uint256"
        }
      ],
      "name": "matematica",
      "outputs": [
        {
          "internalType": "uint256",
          "name": "",
          "type": "uint256"
        }
      ],
      "payable": false,
      "stateMutability": "view",
      "type": "function"
    },
    {
      "constant": true,
      "inputs": [
        {
          "internalType": "uint256",
          "name": "",
          "type": "uint256"
        }
      ],
      "name": "portugues",
      "outputs": [
        {
          "internalType": "uint256",
          "name": "",
          "type": "uint256"
        }
      ],
      "payable": false,
      "stateMutability": "view",
      "type": "function"
    },
    {
      "constant": false,
      "inputs": [
        {
          "internalType": "uint256",
          "name": "Id",
          "type": "uint256"
        },
        {
          "internalType": "uint256",
          "name": "poScore",
          "type": "uint256"
        },
        {
          "internalType": "uint256",
          "name": "maScore",
          "type": "uint256"
        },
        {
          "internalType": "uint256",
          "name": "ciScore",
          "type": "uint256"
        }
      ],
      "name": "grade",
      "outputs": [
        {
          "internalType": "uint256",
          "name": "",
          "type": "uint256"
        }
      ],
      "payable": false,
      "stateMutability": "nonpayable",
      "type": "function"
    },
    {
      "constant": true,
      "inputs": [],
      "name": "getId",
      "outputs": [
        {
          "internalType": "address[16]",
          "name": "",
          "type": "address[16]"
        }
      ],
      "payable": false,
      "stateMutability": "view",
      "type": "function"
    },
    {
      "constant": true,
      "inputs": [],
      "name": "getPortugues",
      "outputs": [
        {
          "internalType": "uint256[16]",
          "name": "",
          "type": "uint256[16]"
        }
      ],
      "payable": false,
      "stateMutability": "view",
      "type": "function"
    },
    {
      "constant": true,
      "inputs": [],
      "name": "getMatematica",
      "outputs": [
        {
          "internalType": "uint256[16]",
          "name": "",
          "type": "uint256[16]"
        }
      ],
      "payable": false,
      "stateMutability": "view",
      "type": "function"
    },
    {
      "constant": true,
      "inputs": [],
      "name": "getCiencias",
      "outputs": [
        {
          "internalType": "uint256[16]",
          "name": "",
          "type": "uint256[16]"
        }
      ],
      "payable": false,
      "stateMutability": "view",
      "type": "function"
    }
  ],
  "bytecode": "0x608060405234801561001057600080fd5b50610699806100206000396000f3fe608060405234801561001057600080fd5b50600436106100935760003560e01c8063a3fc849411610066578063a3fc8494146101f2578063ad4de15714610234578063c6181d5c14610276578063c65f613d146102b8578063f407e01f146102fe57610093565b806338fd9b5d146100985780635d1ca631146100de5780637a78e937146101245780637d3c40c814610184575b600080fd5b6100a0610344565b6040518082601060200280838360005b838110156100cb5780820151818401526020810190506100b0565b5050505090500191505060405180910390f35b6100e661038f565b6040518082601060200280838360005b838110156101115780820151818401526020810190506100f6565b5050505090500191505060405180910390f35b61016e6004803603608081101561013a57600080fd5b8101908080359060200190929190803590602001909291908035906020019092919080359060200190929190505050610410565b6040518082815260200191505060405180910390f35b6101b06004803603602081101561019a57600080fd5b810190808035906020019092919050505061050e565b604051808273ffffffffffffffffffffffffffffffffffffffff1673ffffffffffffffffffffffffffffffffffffffff16815260200191505060405180910390f35b61021e6004803603602081101561020857600080fd5b8101908080359060200190929190505050610541565b6040518082815260200191505060405180910390f35b6102606004803603602081101561024a57600080fd5b8101908080359060200190929190505050610559565b6040518082815260200191505060405180910390f35b6102a26004803603602081101561028c57600080fd5b8101908080359060200190929190505050610571565b6040518082815260200191505060405180910390f35b6102c0610589565b6040518082601060200280838360005b838110156102eb5780820151818401526020810190506102d0565b5050505090500191505060405180910390f35b6103066105d4565b6040518082601060200280838360005b83811015610331578082015181840152602081019050610316565b5050505090500191505060405180910390f35b61034c61061e565b6030601080602002604051908101604052809291908260108015610385576020028201915b815481526020019060010190808311610371575b5050505050905090565b610397610641565b6000601080602002604051908101604052809291908260108015610406576020028201915b8160009054906101000a900473ffffffffffffffffffffffffffffffffffffffff1673ffffffffffffffffffffffffffffffffffffffff16815260200190600101908083116103bc575b5050505050905090565b60008085101580156104235750600f8511155b61042c57600080fd5b6000841015801561043e5750600a8411155b61044757600080fd5b600083101580156104595750600a8311155b61046257600080fd5b600082101580156104745750600a8211155b61047d57600080fd5b336000866010811061048b57fe5b0160006101000a81548173ffffffffffffffffffffffffffffffffffffffff021916908373ffffffffffffffffffffffffffffffffffffffff16021790555083601086601081106104d857fe5b018190555082602086601081106104eb57fe5b018190555081603086601081106104fe57fe5b0181905550849050949350505050565b6000816010811061051b57fe5b016000915054906101000a900473ffffffffffffffffffffffffffffffffffffffff1681565b6030816010811061054e57fe5b016000915090505481565b6020816010811061056657fe5b016000915090505481565b6010816010811061057e57fe5b016000915090505481565b61059161061e565b60206010806020026040519081016040528092919082601080156105ca576020028201915b8154815260200190600101908083116105b6575b5050505050905090565b6105dc61061e565b60108080602002604051908101604052809291908260108015610614576020028201915b815481526020019060010190808311610600575b5050505050905090565b604051806102000160405280601090602082028038833980820191505090505090565b60405180610200016040528060109060208202803883398082019150509050509056fea265627a7a7231582009305f71e4f32a1a5796c18fb57028216e4aa8723451253a113db9f95de6d49264736f6c63430005100032",
  "source": "pragma solidity ^0.5.0;\r\n\r\ncontract Score {\r\n\r\n    address[16] public id;\r\n    uint[16] public portugues;\r\n    uint[16] public matematica;\r\n    uint[16] public ciencias;\r\n\r\n    function grade(uint Id, uint poScore, uint maScore, uint ciScore) public returns (uint) {\r\n    \r\n        require(Id >= 0 && Id <= 15);\r\n        require(poScore >= 0 && poScore <= 10);\r\n        require(maScore >= 0 && maScore <= 10);\r\n        require(ciScore >= 0 && ciScore <= 10);\r\n\r\n        id[Id] = msg.sender;\r\n        portugues[Id] = poScore;\r\n        matematica[Id] = maScore;\r\n        ciencias[Id] = ciScore;\r\n\r\n        return Id;\r\n    }\r\n\r\n    function getId() public view returns (address[16] memory) {\r\n    \r\n        return id;\r\n    }\r\n\r\n    function getPortugues() public view returns (uint[16] memory) {\r\n    \r\n        return portugues;\r\n    }\r\n\r\n    function getMatematica() public view returns (uint[16] memory) {\r\n    \r\n        return matematica;\r\n    }\r\n\r\n    function getCiencias() public view returns (uint[16] memory) {\r\n    \r\n        return ciencias;\r\n    }\r\n\r\n}",
  "sourcePath": "C:/Users/Mirror/pet-shop-tutorial/contracts/Score.sol",
  "compiler": {
    "name": "solc",
    "version": "0.5.16+commit.9c3226ce.Emscripten.clang"
  },
  "schemaVersion": "3.4.1",
  "updatedAt": "2021-05-17T19:58:54.943Z",
  "networkType": "ethereum",
  "devdoc": {
    "methods": {}
  },
  "userdoc": {
    "methods": {}
  }
}